:100800007590FFE590540FFFB41000400302089B61
:10081000900817F828287302084702084C0208516C
:1008200002085602085B02086002086502086A02B4
:10083000086F02087402087902087E020883020821
:100840008902088F02089575A00380B775A09F8064
:10085000B275A02580AD75A00D80A875A09980A364
:1008600075A049809E75A041809975A01F809475E0
:10087000A001808F75A009808A75A011808575A060
:10088000C1808075A06302080375A0850208037506
:10089000A06102080375A07102080375A0FF020899
:0108A0000354
:030000000208A152
:0C08A100787FE4F6D8FD7581070208009E
:00000001FF
